{
	"_format": "hh-sol-artifact-1",
	"contractName": "MovieContract",
	"sourceName": "contracts/Movie.sol",
	"abi": [
		{
			"inputs": [],
			"stateMutability": "nonpayable",
			"type": "constructor"
		},
		{
			"inputs": [],
			"name": "getAllMovies",
			"outputs": [
				{
					"components": [
						{
							"internalType": "address",
							"name": "account",
							"type": "address"
						},
						{
							"internalType": "string",
							"name": "title",
							"type": "string"
						},
						{
							"internalType": "uint256",
							"name": "timestamp",
							"type": "uint256"
						}
					],
					"internalType": "struct MovieContract.Movie[]",
					"name": "",
					"type": "tuple[]"
				}
			],
			"stateMutability": "view",
			"type": "function"
		},
		{
			"inputs": [],
			"name": "getTotalMovieCount",
			"outputs": [
				{
					"internalType": "uint256",
					"name": "",
					"type": "uint256"
				}
			],
			"stateMutability": "view",
			"type": "function"
		},
		{
			"inputs": [
				{
					"internalType": "address",
					"name": "_account",
					"type": "address"
				}
			],
			"name": "getUserMovieCount",
			"outputs": [
				{
					"internalType": "uint256",
					"name": "",
					"type": "uint256"
				}
			],
			"stateMutability": "view",
			"type": "function"
		},
		{
			"inputs": [
				{
					"internalType": "string",
					"name": "_title",
					"type": "string"
				}
			],
			"name": "submitMovie",
			"outputs": [],
			"stateMutability": "nonpayable",
			"type": "function"
		}
	],
	"bytecode": "0x608060405234801561001057600080fd5b5061003c6040518060600160405280602d8152602001610746602d913961004160201b6102cc1760201c565b6100ff565b6100888160405160240161005591906100ac565b60408051601f198184030181529190526020810180516001600160e01b0390811663104c13eb60e21b1790915261008b16565b50565b80516a636f6e736f6c652e6c6f67602083016000808483855afa5050505050565b6000602080835283518082850152825b818110156100d8578581018301518582016040015282016100bc565b818111156100e95783604083870101525b50601f01601f1916929092016040019392505050565b6106388061010e6000396000f3fe608060405234801561001057600080fd5b506004361061004c5760003560e01c80631692067014610051578063430a9e461461008d57806398d8668e14610095578063e16f0065146100aa575b600080fd5b61007a61005f3660046103cc565b6001600160a01b031660009081526020819052604090205490565b6040519081526020015b60405180910390f35b60015461007a565b6100a86100a33660046103fa565b6100bf565b005b6100b26101bb565b60405161008491906104ef565b60408051606081018252338152602080820184815242938301939093526002805460018101825560009190915282517f405787fa12a823e0f2b7631cc41b3ba8828b3321ca811111fa75cd3aa3bb5ace600390920291820180546001600160a01b0319166001600160a01b039092169190911781559351805193949361016e937f405787fa12a823e0f2b7631cc41b3ba8828b3321ca811111fa75cd3aa3bb5acf909301929190910190610333565b50604091820151600290910155336000908152602081905290812080546001929061019a90849061058d565b9250508190555060018060008282546101b3919061058d565b909155505050565b60606002805480602002602001604051908101604052809291908181526020016000905b828210156102c357600084815260209081902060408051606081019091526003850290910180546001600160a01b031682526001810180549293919291840191610228906105b1565b80601f0160208091040260200160405190810160405280929190818152602001828054610254906105b1565b80156102a15780601f10610276576101008083540402835291602001916102a1565b820191906000526020600020905b81548152906001019060200180831161028457829003601f168201915b50505050508152602001600282015481525050815260200190600101906101df565b50505050905090565b61030f816040516024016102e0919061057a565b60408051601f198184030181529190526020810180516001600160e01b031663104c13eb60e21b179052610312565b50565b80516a636f6e736f6c652e6c6f67602083016000808483855afa5050505050565b82805461033f906105b1565b90600052602060002090601f01602090048101928261036157600085556103a7565b82601f1061037a57805160ff19168380011785556103a7565b828001600101855582156103a7579182015b828111156103a757825182559160200191906001019061038c565b506103b39291506103b7565b5090565b5b808211156103b357600081556001016103b8565b6000602082840312156103dd578081fd5b81356001600160a01b03811681146103f3578182fd5b9392505050565b60006020828403121561040b578081fd5b813567ffffffffffffffff80821115610422578283fd5b818401915084601f830112610435578283fd5b813581811115610447576104476105ec565b604051601f8201601f19908116603f0116810190838211818310171561046f5761046f6105ec565b81604052828152876020848701011115610487578586fd5b826020860160208301379182016020019490945295945050505050565b60008151808452815b818110156104c9576020818501810151868301820152016104ad565b818111156104da5782602083870101525b50601f01601f19169290920160200192915050565b60006020808301818452808551808352604092508286019150828160051b870101848801865b8381101561056c57888303603f19018552815180516001600160a01b031684528781015160608986018190529061054e828701826104a4565b92890151958901959095525094870194925090860190600101610515565b509098975050505050505050565b6020815260006103f360208301846104a4565b600082198211156105ac57634e487b7160e01b81526011600452602481fd5b500190565b600181811c908216806105c557607f821691505b602082108114156105e657634e487b7160e01b600052602260045260246000fd5b50919050565b634e487b7160e01b600052604160045260246000fdfea2646970667358221220d6a3eae8983533e7fa1c1e3572b9586a16fb7c9cd716559585d0b627b3979eff64736f6c6343000804003357656c636f6d6520746f20426c6f636b636861696e6275737465722e2053656e64206d652061206d6f76696521",
	"linkReferences": {},
	"deployedLinkReferences": {}
}