{
  "_format": "hh-sol-artifact-1",
  "contractName": "MovieContract",
  "sourceName": "contracts/Movie.sol",
  "abi": [
    {
      "inputs": [],
      "stateMutability": "nonpayable",
      "type": "constructor"
    },
    {
      "inputs": [],
      "name": "getMovies",
      "outputs": [
        {
          "components": [
            {
              "internalType": "address",
              "name": "account",
              "type": "address"
            },
            {
              "internalType": "string",
              "name": "title",
              "type": "string"
            }
          ],
          "internalType": "struct MovieContract.Movie[]",
          "name": "",
          "type": "tuple[]"
        }
      ],
      "stateMutability": "view",
      "type": "function"
    },
    {
      "inputs": [
        {
          "internalType": "address",
          "name": "_account",
          "type": "address"
        }
      ],
      "name": "getUserMovieCount",
      "outputs": [
        {
          "internalType": "uint256",
          "name": "",
          "type": "uint256"
        }
      ],
      "stateMutability": "view",
      "type": "function"
    },
    {
      "inputs": [
        {
          "internalType": "string",
          "name": "_title",
          "type": "string"
        }
      ],
      "name": "submitMovie",
      "outputs": [],
      "stateMutability": "nonpayable",
      "type": "function"
    }
  ],
  "bytecode": "0x608060405234801561001057600080fd5b5061003c6040518060600160405280602d81526020016106ed602d913961004160201b6102821760201c565b6100ff565b6100888160405160240161005591906100ac565b60408051601f198184030181529190526020810180516001600160e01b0390811663104c13eb60e21b1790915261008b16565b50565b80516a636f6e736f6c652e6c6f67602083016000808483855afa5050505050565b6000602080835283518082850152825b818110156100d8578581018301518582016040015282016100bc565b818111156100e95783604083870101525b50601f01601f1916929092016040019392505050565b6105df8061010e6000396000f3fe608060405234801561001057600080fd5b50600436106100415760003560e01c806316920670146100465780632c53b4061461008257806398d8668e14610097575b600080fd5b61006f610054366004610382565b6001600160a01b031660009081526020819052604090205490565b6040519081526020015b60405180910390f35b61008a6100ac565b60405161007991906104a5565b6100aa6100a53660046103b0565b6101b2565b005b60606001805480602002602001604051908101604052809291908181526020016000905b828210156101a9576000848152602090819020604080518082019091526002850290910180546001600160a01b03168252600181018054929391929184019161011890610558565b80601f016020809104026020016040519081016040528092919081815260200182805461014490610558565b80156101915780601f1061016657610100808354040283529160200191610191565b820191906000526020600020905b81548152906001019060200180831161017457829003601f168201915b505050505081525050815260200190600101906100d0565b50505050905090565b604080518082019091523381526020808201838152600180548082018255600091909152835160029091027fb10e2d527612073b26eecdfd717e6a320cf44b4afac2b0732d9fcbe2b7fa0cf6810180546001600160a01b03939093166001600160a01b0319909316929092178255915180519193610255937fb10e2d527612073b26eecdfd717e6a320cf44b4afac2b0732d9fcbe2b7fa0cf701929101906102e9565b505033600090815260208190526040812080546001935090919061027a908490610534565b909155505050565b6102c5816040516024016102969190610521565b60408051601f198184030181529190526020810180516001600160e01b031663104c13eb60e21b1790526102c8565b50565b80516a636f6e736f6c652e6c6f67602083016000808483855afa5050505050565b8280546102f590610558565b90600052602060002090601f016020900481019282610317576000855561035d565b82601f1061033057805160ff191683800117855561035d565b8280016001018555821561035d579182015b8281111561035d578251825591602001919060010190610342565b5061036992915061036d565b5090565b5b80821115610369576000815560010161036e565b600060208284031215610393578081fd5b81356001600160a01b03811681146103a9578182fd5b9392505050565b6000602082840312156103c1578081fd5b813567ffffffffffffffff808211156103d8578283fd5b818401915084601f8301126103eb578283fd5b8135818111156103fd576103fd610593565b604051601f8201601f19908116603f0116810190838211818310171561042557610425610593565b8160405282815287602084870101111561043d578586fd5b826020860160208301379182016020019490945295945050505050565b60008151808452815b8181101561047f57602081850181015186830182015201610463565b818111156104905782602083870101525b50601f01601f19169290920160200192915050565b60006020808301818452808551808352604092508286019150828160051b870101848801865b8381101561051357888303603f19018552815180516001600160a01b031684528701518784018790526105008785018261045a565b95880195935050908601906001016104cb565b509098975050505050505050565b6020815260006103a9602083018461045a565b6000821982111561055357634e487b7160e01b81526011600452602481fd5b500190565b600181811c9082168061056c57607f821691505b6020821081141561058d57634e487b7160e01b600052602260045260246000fd5b50919050565b634e487b7160e01b600052604160045260246000fdfea26469706673582212208b390a1dcedb61ef3350cd9433cf6fa5671098e65e9b28f0d15c1a4b6704228464736f6c6343000804003357656c636f6d6520746f20426c6f636b636861696e6275737465722e2053656e64206d652061206d6f76696521",
  "linkReferences": {},
  "deployedLinkReferences": {}
}