{
  "_format": "hh-sol-artifact-1",
  "contractName": "MovieContract",
  "sourceName": "contracts/Movie.sol",
  "abi": [
    {
      "inputs": [],
      "stateMutability": "nonpayable",
      "type": "constructor"
    },
    {
      "inputs": [],
      "name": "getAllMovies",
      "outputs": [
        {
          "components": [
            {
              "internalType": "address",
              "name": "account",
              "type": "address"
            },
            {
              "internalType": "string",
              "name": "title",
              "type": "string"
            },
            {
              "internalType": "string",
              "name": "genre",
              "type": "string"
            },
            {
              "internalType": "string",
              "name": "image",
              "type": "string"
            },
            {
              "internalType": "string",
              "name": "year",
              "type": "string"
            },
            {
              "internalType": "uint256",
              "name": "timestamp",
              "type": "uint256"
            }
          ],
          "internalType": "struct MovieContract.Movie[]",
          "name": "",
          "type": "tuple[]"
        }
      ],
      "stateMutability": "view",
      "type": "function"
    },
    {
      "inputs": [],
      "name": "getTotalMovieCount",
      "outputs": [
        {
          "internalType": "uint256",
          "name": "",
          "type": "uint256"
        }
      ],
      "stateMutability": "view",
      "type": "function"
    },
    {
      "inputs": [
        {
          "internalType": "address",
          "name": "_account",
          "type": "address"
        }
      ],
      "name": "getUserMovieCount",
      "outputs": [
        {
          "internalType": "uint256",
          "name": "",
          "type": "uint256"
        }
      ],
      "stateMutability": "view",
      "type": "function"
    },
    {
      "inputs": [
        {
          "internalType": "string",
          "name": "_title",
          "type": "string"
        },
        {
          "internalType": "string",
          "name": "_genre",
          "type": "string"
        },
        {
          "internalType": "string",
          "name": "_image",
          "type": "string"
        },
        {
          "internalType": "string",
          "name": "_year",
          "type": "string"
        }
      ],
      "name": "submitMovie",
      "outputs": [],
      "stateMutability": "nonpayable",
      "type": "function"
    }
  ],
  "bytecode": "0x608060405234801561001057600080fd5b5061003c6040518060600160405280602d8152602001610a3d602d913961004160201b6104ed1760201c565b6100ff565b6100888160405160240161005591906100ac565b60408051601f198184030181529190526020810180516001600160e01b0390811663104c13eb60e21b1790915261008b16565b50565b80516a636f6e736f6c652e6c6f67602083016000808483855afa5050505050565b6000602080835283518082850152825b818110156100d8578581018301518582016040015282016100bc565b818111156100e95783604083870101525b50601f01601f1916929092016040019392505050565b61092f8061010e6000396000f3fe608060405234801561001057600080fd5b506004361061004c5760003560e01c80631692067014610051578063430a9e461461008d578063723f0d2d14610095578063e16f0065146100aa575b600080fd5b61007a61005f366004610674565b6001600160a01b031660009081526020819052604090205490565b6040519081526020015b60405180910390f35b60015461007a565b6100a86100a33660046106a2565b6100bf565b005b6100b2610226565b6040516100849190610795565b6040805160c081018252338152602080820187815292820186905260608201859052608082018490524260a08301526002805460018101825560009190915282517f405787fa12a823e0f2b7631cc41b3ba8828b3321ca811111fa75cd3aa3bb5ace600690920291820180546001600160a01b0319166001600160a01b0390921691909117815593518051939493610180937f405787fa12a823e0f2b7631cc41b3ba8828b3321ca811111fa75cd3aa3bb5acf909301929190910190610554565b506040820151805161019c916002840191602090910190610554565b50606082015180516101b8916003840191602090910190610554565b50608082015180516101d4916004840191602090910190610554565b5060a09190910151600590910155336000908152602081905260408120805460019290610202908490610884565b92505081905550600180600082825461021b9190610884565b909155505050505050565b60606002805480602002602001604051908101604052809291908181526020016000905b828210156104e45760008481526020908190206040805160c081019091526006850290910180546001600160a01b031682526001810180549293919291840191610293906108a8565b80601f01602080910402602001604051908101604052809291908181526020018280546102bf906108a8565b801561030c5780601f106102e15761010080835404028352916020019161030c565b820191906000526020600020905b8154815290600101906020018083116102ef57829003601f168201915b50505050508152602001600282018054610325906108a8565b80601f0160208091040260200160405190810160405280929190818152602001828054610351906108a8565b801561039e5780601f106103735761010080835404028352916020019161039e565b820191906000526020600020905b81548152906001019060200180831161038157829003601f168201915b505050505081526020016003820180546103b7906108a8565b80601f01602080910402602001604051908101604052809291908181526020018280546103e3906108a8565b80156104305780601f1061040557610100808354040283529160200191610430565b820191906000526020600020905b81548152906001019060200180831161041357829003601f168201915b50505050508152602001600482018054610449906108a8565b80601f0160208091040260200160405190810160405280929190818152602001828054610475906108a8565b80156104c25780601f10610497576101008083540402835291602001916104c2565b820191906000526020600020905b8154815290600101906020018083116104a557829003601f168201915b505050505081526020016005820154815250508152602001906001019061024a565b50505050905090565b610530816040516024016105019190610871565b60408051601f198184030181529190526020810180516001600160e01b031663104c13eb60e21b179052610533565b50565b80516a636f6e736f6c652e6c6f67602083016000808483855afa5050505050565b828054610560906108a8565b90600052602060002090601f01602090048101928261058257600085556105c8565b82601f1061059b57805160ff19168380011785556105c8565b828001600101855582156105c8579182015b828111156105c85782518255916020019190600101906105ad565b506105d49291506105d8565b5090565b5b808211156105d457600081556001016105d9565b600082601f8301126105fd578081fd5b813567ffffffffffffffff80821115610618576106186108e3565b604051601f8301601f19908116603f01168101908282118183101715610640576106406108e3565b81604052838152866020858801011115610658578485fd5b8360208701602083013792830160200193909352509392505050565b600060208284031215610685578081fd5b81356001600160a01b038116811461069b578182fd5b9392505050565b600080600080608085870312156106b7578283fd5b843567ffffffffffffffff808211156106ce578485fd5b6106da888389016105ed565b955060208701359150808211156106ef578485fd5b6106fb888389016105ed565b94506040870135915080821115610710578384fd5b61071c888389016105ed565b93506060870135915080821115610731578283fd5b5061073e878288016105ed565b91505092959194509250565b60008151808452815b8181101561076f57602081850181015186830182015201610753565b818111156107805782602083870101525b50601f01601f19169290920160200192915050565b60006020808301818452808551808352604092508286019150828160051b870101848801865b8381101561086357888303603f19018552815180516001600160a01b031684528781015160c0898601819052906107f48287018261074a565b915050878201518582038987015261080c828261074a565b91505060608083015186830382880152610826838261074a565b9250505060808083015186830382880152610841838261074a565b60a09485015197909401969096525050948701949250908601906001016107bb565b509098975050505050505050565b60208152600061069b602083018461074a565b600082198211156108a357634e487b7160e01b81526011600452602481fd5b500190565b600181811c908216806108bc57607f821691505b602082108114156108dd57634e487b7160e01b600052602260045260246000fd5b50919050565b634e487b7160e01b600052604160045260246000fdfea2646970667358221220f6243b920ff8ab1306249f6c30c2f5189175969cdeb5eb1de53e1328775ce9e064736f6c6343000804003357656c636f6d6520746f20426c6f636b636861696e6275737465722e2053656e64206d652061206d6f76696521",
  "linkReferences": {},
  "deployedLinkReferences": {}
}